:10000000EEC000000BC1000009C1000007C10000E4
:1000100005C1000003C1000001C10000FFC00000D5
:10002000FDC00000FBC00000F9C00000F7C00000E8
:10003000F5C00000F3C00000F1C00000EFC00000F8
:10004000EDC00000EBC00000E9C00000E7C0000008
:10005000E5C00000E3C00000E1C00000DFC0000018
:10006000DDC00000DBC00000D9C00000D7C0000028
:10007000D5C00000D3C00000D1C00000CFC0000038
:10008000CDC00000CBC00000C9C00000C7C0000048
:10009000C5C00000C3C00000C1C00000BFC0000058
:1000A000BDC00000BBC00000B9C00000B7C0000068
:1000B000B5C00000B3C00000B1C00000AFC0000078
:1000C000ADC00000ABC00000A9C00000A7C0000088
:1000D000A5C00000A3C00000A1C000009FC0000098
:1000E0009DC0000000407A10F35A00A0724E18091B
:1000F0000010A5D4E80000E87648170000E40B548F
:10010000020000CA9A3B000000E1F505000080965D
:100110009800000040420F000000A086010000008F
:10012000102700000000E803000000006400000049
:1001300000000A00000000000100000000002C7612
:10014000D888DC674F0823DFC1DFAE59E1B1B7962D
:10015000E5E3E453C63AE651997696E8E6C284268A
:10016000EB898C9B62ED407C6FFCEFBC9C9F40F266
:10017000BAA56FA5F490055A2AF75C936B6CF967E2
:100180006DC11BFCE0E40D47FEF520E6B500D0EDA7
:10019000902E0300943577050080841E080000200F
:1001A0004E0A000000C80C333333330F986E1283AD
:1001B0001141EF8D2114893BE65516CFFEE6DB1881
:1001C000D1844B381BF77C1D901DA4BBE424203246
:1001D00084725E228100C9F124ECA1E53D2711243F
:1001E0001FBECFEFD1E2DEBFCDBF00E00CBF12E0FB
:1001F000A0E0B2E0EEEEF0E100E00BBF02C007903D
:100200000D92A232B107D9F722E0A2E2B2E001C01A
:100210001D92AA32B207E1F733D167C7F1CECF936F
:10022000DF93CDB7DEB78CE790E02CE730E0F90143
:1002300020812064FC0120838AE790E02AE730E0F7
:10024000F90120812068FC0120830000DF91CF911B
:100250000895CF93DF931F92CDB7DEB789838CE7E4
:1002600090E02CE730E0F9012081207EFC01208322
:100270008CE790E02CE730E0F9012081322F2981D2
:100280002770232BFC0120838BE790E029812870C5
:10029000FC0120838AE790E02AE730E0F901208121
:1002A0002064FC0120838AE790E0FC018081882F94
:1002B00090E08074992721E0892B09F420E0222323
:1002C00009F0F1CF88E790E0FC01808191810F90E7
:1002D000DF91CF910895CF93DF931F921F92CDB7F7
:1002E000DEB79A83898385EC90E029813A81232FB8
:1002F0003327FC01208384EC90E02981FC012083DA
:1003000081EC90E028E1FC01208382EC90E022EC7B
:1003100030E0F9012081277FFC01208382EC90E00E
:1003200022EC30E0F90120812660FC0120830000EE
:100330000F900F90DF91CF910895CF93DF931F928D
:10034000CDB7DEB7898380EC90E0FC018081882FF7
:1003500090E08072992721E0892B09F020E0222388
:1003600009F0F1CF86EC90E02981FC0120830000A8
:100370000F90DF91CF910895CF93DF93CDB7DEB784
:100380002C970FB6F894DEBF0FBECDBF9C878B872E
:1003900019821A821B821C821E821D822D813E813F
:1003A0008B859C85281739070CF03BC08091000293
:1003B00050DFCC01A0E0B0E0BC01CD01B9D2DC013E
:1003C000CB018093260290932702A0932802B0933A
:1003D00029028091260290912702A0912802B091D3
:1003E0002902209126023091270240912802509143
:1003F0002902BC01CD0152D3DC01CB019C01AD012E
:1004000069817A818B819C8192D1DC01CB018983C6
:100410009A83AB83BC838D819E8101969E838D835D
:10042000BDCF8B859C85092E000CAA0BBB0BBC0194
:10043000CD0180D2DC01CB019C01AD0169817A81C3
:100440008B819C81DCD1DC01CB018F839887A987CC
:10045000BA878F819885A985BA85BC01CD0185D3DE
:10046000DC01CB01BC01CD0132D2DC01CB012C96E9
:100470000FB6F894DEBF0FBECDBFDF91CF910895C8
:100480000F931F93CF93DF93CDB7DEB7C357D10937
:100490000FB6F894DEBF0FBECDBFC1DE87E690E099
:1004A0001ADF8EE190E068DF092E000CAA0BBB0B6F
:1004B000BC01CD013FD2DC01CB0180932602909399
:1004C0002702A0932802B093290280E090E0AAEFCF
:1004D000B4E489879A87AB87BC8720E030E04AE79D
:1004E00055E469857A858B859C85D8D2DC01CB0162
:1004F0008D879E87AF87B88B20E030E040E85FE3D0
:100500006D857E858F85988976D188232CF481E04E
:1005100090E09A8B898B3AC020E03FEF4FE757E499
:100520006D857E858F859889B5D2181634F520E0C3
:1005300030E040E251E469857A858B859C85AED2B6
:10054000DC01CB01BC01CD01C7D1DC01CB019A8B11
:10055000898B89899A89892B19F180E991E09C8B93
:100560008B8B8B899C890197F1F79C8B8B8B89896D
:100570009A8901979A8B898BECCF6D857E858F85C3
:100580009889AAD1DC01CB019A8B898B89899A89B8
:100590009E8B8D8B8D899E890197F1F79E8B8D8B1C
:1005A0008091260290912702A0912802B091290201
:1005B00020E030E040EA50E4BC01CD016FD2DC0124
:1005C000CB0120E030E040E854E4BC01CD0117D17C
:1005D000DC01CB018093220290932302A09324029A
:1005E000B09325028091260290912702A0912802C3
:1005F000B09129029E01295E3F4F890120E045E02C
:10060000BC01CD0105D38091220290912302A091DB
:100610002402B09125029E012E5B3F4F890123E009
:1006200043E0BC01CD01F4D28AE0E1E0F2E0DE017A
:10063000919601900D928A95E1F72AE0CE018B9672
:10064000FC01322F11923A95E9F71A8219828981B9
:100650009A81099784F49E012F5D3F4F89819A8189
:10066000820F931FFC01808168DE89819A81019647
:100670009A838983ECCF81E090E09C838B838B818C
:100680009C81059784F49E01295E3F4F8B819C815C
:10069000820F931FFC01808150DE8B819C8101962B
:1006A0009C838B83ECCF80E248DE8CE0E5E1F2E0D6
:1006B000DE01D59601900D928A95E1F7CE018F5B10
:1006C0009F4FFC0110821E821D828D819E810B979F
:1006D00084F49E012B5C3F4F8D819E81820F931F7E
:1006E000FC0180812ADE8D819E8101969E838D830F
:1006F000ECCF18861F828F819885049784F49E0121
:100700002E5B3F4F8F819885820F931FFC01808164
:1007100014DE8F819885019698878F83ECCF80E2D5
:100720000CDE8CE70ADE80E208DEBBCE5058BB2729
:10073000AA270ED075C166D130F06BD120F031F40C
:100740009F3F11F41EF45BC10EF4E095E7FB51C12D
:10075000E92F77D180F3BA176207730784079507EB
:1007600018F071F49EF58FC10EF4E0950B2EBA2FA0
:10077000A02D0B01B90190010C01CA01A0011124A7
:10078000FF27591B99F0593F50F4503E68F11A1653
:10079000F040A22F232F342F4427585FF3CF4695E4
:1007A00037952795A795F0405395C9F77EF41F1606
:1007B000BA0B620B730B840BBAF09150A1F0FF0FD0
:1007C000BB1F661F771F881FC2F70EC0BA0F621FBC
:1007D000731F841F48F4879577956795B795F795AC
:1007E0009E3F08F0B3CF9395880F08F09927EE0F3E
:1007F000979587950895D9D008F481E008950CD095
:100800000FC107D140F0FED030F021F45F3F19F066
:10081000F0C0511139C1F3C014D198F39923C9F331
:100820005523B1F3951B550BBB27AA2762177307F6
:10083000840738F09F5F5F4F220F331F441FAA1FAA
:10084000A9F333D00E2E3AF0E0E830D0915050406A
:10085000E695001CCAF729D0FE2F27D0660F771F18
:10086000881FBB1F261737074807AB07B0E809F0FA
:10087000BB0B802DBF01FF2793585F4F2AF09E3F8F
:10088000510568F0B6C000C15F3FECF3983EDCF361
:10089000869577956795B795F7959F5FC9F7880F08
:1008A000911D9695879597F90895E1E0660F771F5A
:1008B000881FBB1F621773078407BA0720F0621BEB
:1008C000730B840BBA0BEE1F88F7E095089504D0E4
:1008D0006894B111D9C00895BCD088F09F5790F0AA
:1008E000B92F9927B751A0F0D1F0660F771F881F55
:1008F000991F1AF0BA95C9F712C0B13081F0C3D070
:10090000B1E00895C0C0672F782F8827B85F39F00D
:10091000B93FCCF3869577956795B395D9F73EF4B3
:1009200090958095709561957F4F8F4F9F4F08955B
:10093000E89409C097FB3EF4909580957095619579
:100940007F4F8F4F9F4F9923A9F0F92F96E9BB272F
:100950009395F695879577956795B795F111F8CFAB
:10096000FAF4BB0F11F460FF1BC06F5F7F4F8F4F16
:100970009F4F16C0882311F096E911C0772321F00C
:100980009EE8872F762F05C0662371F096E8862FA4
:1009900070E060E02AF09A95660F771F881FDAF7FB
:1009A000880F9695879597F90895990F0008550F28
:1009B000AA0BE0E8FEEF16161706E807F907C0F0E5
:1009C00012161306E407F50798F0621B730B840BED
:1009D000950B39F40A2661F0232B242B252B21F4C7
:1009E00008950A2609F4A140A6958FEF811D811D67
:1009F000089597F99F6780E870E060E008959FEFA1
:100A000080EC089500240A941616170618060906A5
:100A1000089500240A941216130614060506089574
:100A2000092E0394000C11F4882352F0BB0F40F4FC
:100A3000BF2B11F460FF04C06F5F7F4F8F4F9F4F3C
:100A4000089557FD9058440F551F59F05F3F71F0BE
:100A50004795880F97FB991F61F09F3F79F0879525
:100A60000895121613061406551FF2CF4695F1DFAE
:100A700008C0161617061806991FF1CF869571053E
:100A8000610508940895E894BB2766277727CB0172
:100A900097F908958ADF08F48FEF08950BD0C0CF3F
:100AA000B1DF28F0B6DF18F0952309F0A2CFA7CF69
:100AB0001124EACFC6DFA0F3959FD1F3950F50E044
:100AC000551F629FF001729FBB27F00DB11D639F00
:100AD000AA27F00DB11DAA1F649F6627B00DA11DA6
:100AE000661F829F2227B00DA11D621F739FB00D4C
:100AF000A11D621F839FA00D611D221F749F3327BC
:100B0000A00D611D231F849F600D211D822F762F54
:100B10006A2F11249F5750408AF0E1F088234AF051
:100B2000EE0FFF1FBB1F661F771F881F915050409D
:100B3000A9F79E3F510570F05CCFA6CF5F3FECF365
:100B4000983EDCF3869577956795B795F795E79589
:100B50009F5FC1F7FE2B880F911D9695879597F99A
:100B6000089511F40EF44BCF3EC073DFD0F39923F8
:100B7000D9F3CEF39F57550B87FF43D00024A0E64F
:100B800040EA900180585695979528F4805C660F4E
:100B9000771F881F20F026173707480730F4621B9D
:100BA000730B840B202931294A2BA695179407949F
:100BB000202531254A2758F7660F771F881F20F018
:100BC00026173707480730F4620B730B840B200D90
:100BD000311D411DA09581F7B901842F9158880FCF
:100BE0009695879508959F3F31F0915020F4879511
:100BF00077956795B795880F911D9695879597F985
:100C0000089591505040660F771F881FD2F70895BE
:100C1000EF920F931F93CF93DF93E80147FD02C03C
:100C200034E001C034E1042E000C550B57FF03C023
:100C3000519541955109E32E022F242FAE0107D083
:100C4000CE01DF91CF911F910F91EF9008958F9278
:100C50009F92AF92BF92CF92DF92EF92FF920F934B
:100C60001F93CF93DF93CDB7DEB729970FB6F894D4
:100C7000DEBF0FBECDBF6A01122FB02E2BE32017AF
:100C800020F0FF24F394F00E02C02CE3F22E0F2D7F
:100C900027E0AE014F5F5F4F50D1BC014981842FE7
:100CA0008970813031F0E1FC06C0E0FE06C090E2C0
:100CB00005C09DE203C09BE201C090E05E2D507133
:100CC00043FF3CC0911102C083E001C084E0811762
:100CD00018F4212F281B01C020E051110BC0F60190
:100CE000822F30E2882319F031938150FBCFC20E5E
:100CF000D11C20E0992329F0D6019C93F60131966E
:100D00006F01C6010396E2FE0AC03EE4D6013C93A1
:100D100041E411964C93119712963C9306C03EE61F
:100D2000F601308341E641833283FC01322F40E2F9
:100D3000332309F442C041933150FACF42FF44C0FB
:100D4000911102C083E001C084E0811718F4212FC3
:100D5000281B01C020E051110BC0F601822F30E2A8
:100D6000882319F031938150FBCFC20ED11C20E0B3
:100D7000992329F0D6019C93F60131966F01C601A3
:100D80000396E2FE0BC039E4D6013C933EE4119693
:100D90003C93119736E412963C9307C039E6F6016E
:100DA00030833EE6318336E63283FC01322F40E267
:100DB000332319F041933150FBCFFC01E20FF11DB9
:100DC00010828EEF9FEFA6C021E030E0911102C0AB
:100DD00020E030E0161617061CF4FB01319602C025
:100DE000E1E0F0E02E0F3F1FBB2021F0EB2DF0E003
:100DF000319602C0E0E0F0E02E0F3F1FE12FF0E05F
:100E00002E173F071CF4121B212F01C020E08E2D4E
:100E1000887159F4F601822F30E2882319F031935A
:100E20008150FBCFC20ED11C20E0992329F0D601BE
:100E30009C93F60131966F0151110BC0F601822F80
:100E400090E3882319F091938150FBCFC20ED11CFF
:100E500020E00F2D060F9A81342F307144FF03C01C
:100E6000913309F40150101624F4093018F008E009
:100E700001C001E0AB0177FF02C040E050E0FB01A0
:100E8000E41BF50BA1E0B0E0AC0FBD1FEA0FFB1FA8
:100E90008EE2A82E4B01801A91080B2D10E01195BF
:100EA000019511094F3FBFEF5B0721F4D601AC92CA
:100EB00011966D01641775072CF08416950614F4CD
:100EC000818101C080E3415051093196D6011196CC
:100ED0007D014017510724F0D6018C936701E2CFC2
:100EE0006417750739F4963320F4953319F43111EA
:100EF00001C081E3F6018083F701822F90E288230D
:100F000019F091938150FBCFF701E20FF11D108290
:100F100080E090E029960FB6F894DEBF0FBECDBFFB
:100F2000DF91CF911F910F91FF90EF90DF90CF90C5
:100F3000BF90AF909F908F900895283008F027E0E1
:100F40003327DA01990F311D87FD91600096610505
:100F5000710539F432602E5F3D9330E32A95E1F755
:100F600008959F3F30F080387105610509F03C5FBE
:100F70003C5F3D93913008F08068911DDF93CF93E3
:100F80001F930F93FF92EF92192F987F9695E92F59
:100F900096959695E90FFF27E25CFE4F9927332738
:100FA000EE24FF24A701E70105900894079428F494
:100FB000360FE71EF81E491F511D660F771F881F49
:100FC000991F0694A1F70590079428F4E70EF81EE0
:100FD000491F561FC11D770F881F991F661F069452
:100FE000A1F70590079428F4F80E491F561FC71F54
:100FF000D11D880F991F661F771F0694A1F70590D2
:10100000079420F4490F561FC71FD81F990F661F5A
:10101000771F881F0694A9F784911095177041F0E7
:10102000D695C79557954795F794E7941A95C1F7C4
:10103000E4EEF0E0689415901591359165919591E5
:1010400005907FE27395E118F10A430B560BC90B2B
:10105000D009C0F7E10CF11E431F561FC91FD01D58
:101060007EF4703311F48A95E6CFE894015030F0A5
:10107000080F0AF40027021708F4202F2395022FE7
:101080007A3328F079E37D932A95E9F710C07D93B0
:101090002A9589F60694979567953795179517942D
:1010A000E118F10A430B560BC90BD00998F02395B0
:1010B0007E9173957A3308F070E37C932013B8F730
:1010C0007E9170617D9330F0839571E37D9370E341
:1010D0002A95E1F71124EF90FF900F911F91CF9186
:0E10E000DF91992787FD90950895F894FFCF32
:1010EE00054469676974616C3A20000000000000D5
:1010FE000000000000416E616C6F6769636F3A20FB
:02110E000000DF
:00000001FF
