:1000000071C0000079C0000077C0000075C000001A
:1000100073C0000071C000006FC000006DC0000020
:100020006BC0000069C0000067C0000065C0000030
:1000300063C0000061C000005FC000005DC0000040
:100040005BC0000059C0000057C0000055C0000050
:1000500053C0000051C000004FC000004DC0000060
:100060004BC0000049C0000047C0000045C0000070
:1000700043C0000041C000003FC000003DC0000080
:100080003BC0000039C0000037C0000035C0000090
:1000900033C0000031C000002FC000002DC00000A0
:1000A0002BC0000029C0000027C0000025C00000B0
:1000B00023C0000021C000001FC000001DC00000C0
:1000C0001BC0000019C0000017C0000015C00000D0
:1000D00013C0000011C000000FC000000DC00000E0
:1000E0000BC0000011241FBECFEFD1E2DEBFCDBF99
:1000F00000E00CBF69D078C083CFCF93DF931F920D
:100100001F92CDB7DEB79A83898385EC90E0298171
:100110003A81232F3327FC01208384EC90E029814E
:10012000FC01208381EC90E028E1FC01208382EC3B
:1001300090E022EC30E0F9012081277FFC01208350
:1001400082EC90E022EC30E0F90120812660FC0195
:10015000208300000F900F90DF91CF910895CF93EF
:10016000DF93CDB7DEB780EC90E0FC018081809515
:10017000881F8827881F882309F0F5CF86EC90E038
:10018000FC018081DF91CF910895CF93DF931F927F
:10019000CDB7DEB7898380EC90E0FC018081882FA9
:1001A00090E08072992721E0892B09F020E022233A
:1001B00009F0F1CF86EC90E02981FC01208300005A
:1001C0000F90DF91CF910895CF93DF931F92CDB71A
:1001D000DEB787E690E091DFC2DF898389818F5F98
:0C01E00089838981D2DFF8CFF894FFCF2B
:00000001FF
