:100000009DC00000BCC00000BAC00000B8C0000025
:10001000B6C00000B4C00000B2C00000B0C0000014
:10002000AEC00000ACC00000AAC00000A8C0000024
:10003000A6C00000A4C00000A2C00000A0C0000034
:100040009EC000009CC000009AC0000098C0000044
:1000500096C0000094C0000092C0000090C0000054
:100060008EC000008CC000008AC0000088C0000064
:1000700086C0000084C0000082C0000080C0000074
:100080007EC000007CC000007AC0000078C0000084
:1000900076C0000074C0000072C0000070C0000094
:1000A0006EC000006CC000006AC0000068C00000A4
:1000B00066C0000064C0000062C0000060C00000B4
:1000C0005EC000005CC000005AC0000058C00000C4
:1000D00056C0000054C0000052C0000050C00000D4
:1000E0004EC00000E900E900220122015D019601F5
:1000F000CF01CF01CF01CF010A020A020A020A0290
:100100007B027B027B027B02AF027B02E302E30203
:10011000E302E3021703170317031703840384039F
:100120008403840396038403A803A803A803A803F5
:10013000BA03BA03BA03BA036905750511241FBED1
:10014000CFEFD1E2DEBFCDBF00E00CBF22E0A0E0E8
:10015000B2E001C01D92A430B207E1F710E0CDE992
:10016000D0E000E005C021970109802FFE01C9D42D
:10017000CC39D10780E00807B1F713D3D6C540CFFB
:10018000CF93DF9300D01F92CDB7DEB79A838983D8
:100190006B834C8389819A812B81FC012183898126
:1001A0009A81FC018181882F90E0092E000CAA0B16
:1001B000BB0B40E050E02DE030E0841B950B28178E
:1001C000390708F462C1FC018827EE58FF4F8F4FB2
:1001D00098C489819A812B81FC0120838C8188239A
:1001E000C1F08DE290E02DE230E0F9012081622F34
:1001F00029813A81F9012081422F50E021E030E04D
:1002000002C0220F331F4A95E2F7262BFC01208300
:100210003CC18DE290E02DE230E0F9012081622FB7
:1002200029813A81F9012081422F50E021E030E01C
:1002300002C0220F331F4A95E2F720952623FC01C6
:10024000208323C18B8122E0280F89819A81FC01C0
:1002500020838C818823C1F08DE290E02DE230E094
:10026000F9012081622F29813A81F9012081422FF1
:1002700050E021E030E002C0220F331F4A95E2F740
:10028000262BFC01208301C18DE290E02DE230E0BD
:10029000F9012081622F29813A81F9012081422FC1
:1002A00050E021E030E002C0220F331F4A95E2F710
:1002B00020952623FC012083E8C089819A8125E0CE
:1002C000FC0120838C818823C1F083E390E023E349
:1002D00030E0F9012081622F29813A81F9012081E2
:1002E000422F50E021E030E002C0220F331F4A9538
:1002F000E2F7262BFC012083C8C083E390E023E3D0
:1003000030E0F9012081622F29813A81F9012081B1
:10031000422F50E021E030E002C0220F331F4A9507
:10032000E2F720952623FC012083AFC089819A81C2
:1003300023E0FC0120838C818823C1F08DE290E0D2
:100340002DE230E0F9012081622F29813A81F90103
:100350002081422F50E021E030E002C0220F331F05
:100360004A95E2F7262BFC0120838FC08DE290E0B6
:100370002DE230E0F9012081622F29813A81F901D3
:100380002081422F50E021E030E002C0220F331FD5
:100390004A95E2F720952623FC01208376C08B81C5
:1003A0002DEF280F89819A81FC0120838C8188237D
:1003B000C1F081E091E021E031E0F9012081622F7C
:1003C00029813A81F9012081422F50E021E030E07B
:1003D00002C0220F331F4A95E2F7262BFC0120832F
:1003E00054C081E091E021E031E0F9012081622FE9
:1003F00029813A81F9012081422F50E021E030E04B
:1004000002C0220F331F4A95E2F720952623FC01F4
:1004100020833BC08B812AEF280F89819A81FC01C0
:1004200020838C818823C1F084E290E024E230E0D4
:10043000F9012081622F29813A81F9012081422F1F
:1004400050E021E030E002C0220F331F4A95E2F76E
:10045000262BFC01208318C084E290E024E230E0E7
:10046000F9012081622F29813A81F9012081422FEF
:1004700050E021E030E002C0220F331F4A95E2F73E
:1004800020952623FC01208300000F900F900F90F1
:100490000F90DF91CF910895CF93DF931F921F921A
:1004A000CDB7DEB79A8389830F900F90DF91CF91FC
:1004B0000895CF93DF9300D0CDB7DEB79A838983B9
:1004C0006B8389819A81FC018181882F90E0092EBC
:1004D000000CAA0BBB0B40E050E02DE030E0841B89
:1004E000950B2817390708F4D6C0FC018827E05877
:1004F000FF4F8F4F06C38B818823C1F08EE290E0BF
:100500002EE230E0F9012081622F29813A81F90140
:100510002081422F50E021E030E002C0220F331F43
:100520004A95E2F7262BFC012083B5C08EE290E0CD
:100530002EE230E0F9012081622F29813A81F90110
:100540002081422F50E021E030E002C0220F331F13
:100550004A95E2F720952623FC0120839CC08B81DD
:100560008823C1F084E390E024E330E0F9012081A6
:10057000622F29813A81F9012081422F50E021E048
:1005800030E002C0220F331F4A95E2F7262BFC0110
:10059000208381C084E390E024E330E0F9012081EE
:1005A000622F29813A81F9012081422F50E021E018
:1005B00030E002C0220F331F4A95E2F72095262330
:1005C000FC01208368C08B818823C1F082E091E028
:1005D00022E031E0F9012081622F29813A81F9017D
:1005E0002081422F50E021E030E002C0220F331F73
:1005F0004A95E2F7262BFC0120834DC082E091E072
:1006000022E031E0F9012081622F29813A81F9014C
:100610002081422F50E021E030E002C0220F331F42
:100620004A95E2F720952623FC01208334C08B8174
:100630008823C1F085E290E025E230E0F9012081D5
:10064000622F29813A81F9012081422F50E021E077
:1006500030E002C0220F331F4A95E2F7262BFC013F
:10066000208318C085E290E025E230E0F901208186
:10067000622F29813A81F9012081422F50E021E047
:1006800030E002C0220F331F4A95E2F7209526235F
:10069000FC01208300000F900F900F90DF91CF910D
:1006A0000895CF93DF931F921F92CDB7DEB79A8341
:1006B000898389819A8160E0FCDE0F900F90DF9141
:1006C000CF910895CF93DF931F921F92CDB7DEB7DE
:1006D0009A83898389819A81FC018181882F90E0A6
:1006E000092E000CAA0BBB0B40E050E02DE030E0DF
:1006F000841B950B2817390708F44EC0FC01882786
:10070000E257FF4F8F4FFDC18CE290E029813A8183
:10071000F9012081422F50E021E030E002C0220F99
:10072000331F4A95E2F7FC01208336C082E390E054
:1007300029813A81F9012081422F50E021E030E007
:1007400002C0220F331F4A95E2F7FC01208324C028
:1007500080E091E029813A81F9012081422F50E027
:1007600021E030E002C0220F331F4A95E2F7FC017E
:10077000208312C083E290E029813A81F90120812F
:10078000422F50E021E030E002C0220F331F4A9593
:10079000E2F7FC01208300000F900F90DF91CF91D2
:1007A0000895CF93DF93CDB7DEB7AA970FB6F8942D
:1007B000DEBF0FBECDBF81EC90E0FC01108261E096
:1007C00080E092E076DE61E082E092E072DE80E03E
:1007D00090E0AAE7B4E489839A83AB83BC8320E0EA
:1007E00030E04AE755E469817A818B819C8112D29D
:1007F000DC01CB018D839E83AF83B88720E030E09E
:1008000040E85FE36D817E818F81988582D1882366
:100810002CF481E090E09A8789873BC020E03FEF8D
:100820004FE757E46D817E818F819885EFD118164F
:100830003CF520E030E040E251E469817A818B812F
:100840009C81E8D1DC01CB01BC01CD0166D1DC018A
:10085000CB019A8789870FC080E991E09C878B87BD
:100860008B859C850197F1F79C878B8789859A8575
:1008700001979A87898789859A85892B69F713C09B
:100880006D817E818F81988548D1DC01CB019A876B
:10089000898789859A859E878D878D859E85019715
:1008A000F1F79E878D8780E092E0FBDE82E092E0A8
:1008B000F8DE80E090E0AAE7B4E48F87988BA98BFC
:1008C000BA8B20E030E04AE755E46F857889898962
:1008D0009A89A0D1DC01CB018B8B9C8BAD8BBE8B1D
:1008E00020E030E040E85FE36B897C898D899E8958
:1008F00010D188232CF481E090E0988F8F8B3BC03F
:1009000020E03FEF4FE757E46B897C898D899E8912
:100910007DD118163CF520E030E040E251E46F85CF
:10092000788989899A8976D1DC01CB01BC01CD0116
:10093000F4D0DC01CB01988F8F8B0FC080E991E060
:100940009A8F898F898D9A8D0197F1F79A8F898F68
:100950008F89988D0197988F8F8B8F89988D892B90
:1009600069F713C06B897C898D899E89D6D0DC019B
:10097000CB01988F8F8B8F89988D9C8F8B8F8B8DD0
:100980009C8D0197F1F79C8F8B8F80E092E09ADE2F
:1009900082E092E097DE80E090E0AAE7B4E48D8FF9
:1009A0009E8FAF8FB8A320E030E04AE755E46D8D0D
:1009B0007E8D8F8D98A12ED1DC01CB0189A39AA3C6
:1009C000ABA3BCA320E030E040E85FE369A17AA1DB
:1009D0008BA19CA19ED088232CF481E090E09EA363
:1009E0008DA33BC020E03FEF4FE757E469A17AA118
:1009F0008BA19CA10BD118163CF520E030E040E221
:100A000051E46D8D7E8D8F8D98A104D1DC01CB01D9
:100A1000BC01CD0182D0DC01CB019EA38DA30FC010
:100A200080E991E098A78FA38FA198A50197F1F78E
:100A300098A78FA38DA19EA101979EA38DA38DA1A1
:100A40009EA1892B69F713C069A17AA18BA19CA1F2
:100A500064D0DC01CB019EA38DA38DA19EA19AA79A
:100A600089A789A59AA50197F1F79AA789A78DCF9C
:100A7000CF93DF9300D01F92CDB7DEB79A838983DF
:100A80007C836B8389819A81019771F48B819C812E
:100A9000019651F441E060E080E092E071DB41E0DA
:100AA0006DE082E092E06CDB89819A81892B51F4C0
:100AB0008B819C81019631F482E092E0EDDC80E054
:100AC00092E0EADC0F900F900F900F90DF91CF91A2
:100AD0000895CF93DF93CDB7DEB76FEF7FEF81E05F
:100AE00090E0C6DFDF91CF910895CF93DF93CDB72C
:100AF000DEB76FEF7FEF80E090E0BADFDF91CF915C
:100B00000895EE0FFF1F881F8BBF0790F691E02D11
:100B100019942FD008F481E0089557D088F09F579A
:100B200090F0B92F9927B751A0F0D1F0660F771F39
:100B3000881F991F1AF0BA95C9F712C0B13081F019
:100B40005ED0B1E008955BC0672F782F8827B85F2B
:100B500039F0B93FCCF3869577956795B395D9F77A
:100B60003EF490958095709561957F4F8F4F9F4F84
:100B70000895990F0008550FAA0BE0E8FEEF16162E
:100B80001706E807F907C0F012161306E407F50781
:100B900098F0621B730B840B950B39F40A2661F0F5
:100BA000232B242B252B21F408950A2609F4A14098
:100BB000A6958FEF811D811D089557FD9058440F14
:100BC000551F59F05F3F71F04795880F97FB991FAC
:100BD00061F09F3F79F08795089512161306140669
:100BE000551FF2CF4695F1DF08C0161617061806F6
:100BF000991FF1CF86957105610508940895E894D1
:100C0000BB2766277727CB0197F90895B2DF08F451
:100C10008FEF08950BD078C069D028F06ED018F00F
:100C2000952309F05AC05FC01124EACFC6DFA0F3B4
:100C3000959FD1F3950F50E0551F629FF001729F71
:100C4000BB27F00DB11D639FAA27F00DB11DAA1F90
:100C5000649F6627B00DA11D661F829F2227B00DDD
:100C6000A11D621F739FB00DA11D621F839FA00D68
:100C7000611D221F749F3327A00D611D231F849FB8
:100C8000600D211D822F762F6A2F11249F5750400F
:100C90008AF0E1F088234AF0EE0FFF1FBB1F661FAA
:100CA000771F881F91505040A9F79E3F510570F063
:100CB00014C0A6CF5F3FECF3983EDCF386957795A2
:100CC0006795B795F795E7959F5FC1F7FE2B880F5E
:100CD000911D9695879597F9089597F99F6780E8F4
:100CE00070E060E008959FEF80EC089500240A947E
:100CF0001616170618060906089500240A941216F7
:100D00001306140605060895092E0394000C11F429
:100D1000882352F0BB0F40F4BF2B11F460FF04C0D6
:100D20006F5F7F4F8F4F9F4F089510E0CDE9D0E068
:100D300000E005C0802FFE01E4DE2196011DCE39C2
:0C0D4000D10780E00807B1F7F894FFCF5E
:00000001FF
